:100000000201CB020000000000000002000000001E
:1000100000000002000000000000000200000000DC
:06002000000000020000D8
:10002600751A00D3E5199409402375F00AE5198479
:10003600F985011A7804E9088002C333D8FCF51A59
:1000460075F00AE51984E5F0F8421A800385191A55
:03005600A81A22C3
:10005900E5174518602485171911268500907D0834
:100069007E017FF5DFFEDEFCDDFA00C3E5179401B2
:0B007900F517E5189400F51880D6225A
:0D008400C29985179920990280FBC299222C
:10009100751500A8148616E51660108516171184CB
:0C00A1000515E5142515F8861680EC22E4
:0500AD00C298A8992291
:1000B200C2A0D2A275170A7518001159C2A2D2A104
:1000C2007517147518001159C2A1D2A075170A75B7
:0700D2001800115980DA2229
:1000D900C2A2D2A175170A7518001159C2A1D2A0DE
:1000E9007517147518001159C2A0D2A275170A758F
:0700F9001800115980DA2202
:10010000C2A1D2A07517147518001159C2A0D2A2AD
:1001100075170A7518001159C2A2D2A175170A7570
:070120001800115980DA22DA
:06012700A298E433F82267
:10012D0011AD85001380133100802311D9801F116B
:10013D00B2801B75143011918014E513647260E761
:0F014D00E513646F60E5E513646760E380E52206
:08015C00E493F608A3D9F9228F
:10016400750884750900750A17750EAD750F00754D
:100174001000750B27750C01750D00759850758767
:08018400807588407589202276
:10018C00E5114512602B85111911268500907D080B
:10019C007E017FF5DFFEDEFCDDFA00C3E511940184
:1001AC00F511E5129400F5123127E8600280028007
:0F01BC00CF3127E86008C2A0C2A1C2A2312D2214
:1001CB0075811B12026B759000C2A0C2A1C2A275F1
:1001DB008DFD758BFD3164C3E58792E7F58775144B
:1001EB0044119175146E1191751459119175146414
:1001FB001191C2A0D2A275110A751200318CC2A244
:10020B00D2A175110A751200318CC2A1D2A0751141
:0A021B0014751200318C80DA80FEA9
:0E026B007830794675822575830212015C2277
:10022500200D0A20496E76616C6964206B65792121
:04023500200D0A008E
:1002390053797374656D2069732072656164792ED1
:05024900200D0A200059
:0B024E004F204F52414E47452C20002E
:0A0259004720475245454E0D0A00AC
:0802630052205245442C2000FA
:00000001FF
